{
  "address": "0xCf7Ed3AccA5a467e9e704C703E8D87F634fB0Fc9",
  "abi": [
    {
      "inputs": [
        {
          "internalType": "address",
          "name": "vrfCoordinatorV2",
          "type": "address"
        },
        {
          "internalType": "uint256",
          "name": "entranceFee",
          "type": "uint256"
        },
        {
          "internalType": "bytes32",
          "name": "gasLane",
          "type": "bytes32"
        },
        {
          "internalType": "uint64",
          "name": "subscriptionId",
          "type": "uint64"
        },
        {
          "internalType": "uint32",
          "name": "callbackGasLimit",
          "type": "uint32"
        },
        {
          "internalType": "uint256",
          "name": "interval",
          "type": "uint256"
        }
      ],
      "stateMutability": "nonpayable",
      "type": "constructor"
    },
    {
      "inputs": [
        {
          "internalType": "address",
          "name": "have",
          "type": "address"
        },
        {
          "internalType": "address",
          "name": "want",
          "type": "address"
        }
      ],
      "name": "OnlyCoordinatorCanFulfill",
      "type": "error"
    },
    {
      "inputs": [],
      "name": "Raffle__NotEnoughETHEntered",
      "type": "error"
    },
    {
      "inputs": [],
      "name": "Raffle__NotOpen",
      "type": "error"
    },
    {
      "inputs": [],
      "name": "Raffle__TransferFailed",
      "type": "error"
    },
    {
      "inputs": [
        {
          "internalType": "uint256",
          "name": "currentBalance",
          "type": "uint256"
        },
        {
          "internalType": "uint256",
          "name": "numPlayers",
          "type": "uint256"
        },
        {
          "internalType": "uint256",
          "name": "raffleState",
          "type": "uint256"
        }
      ],
      "name": "Raffle__UpkeepNotNeeded",
      "type": "error"
    },
    {
      "anonymous": false,
      "inputs": [
        {
          "indexed": true,
          "internalType": "address",
          "name": "player",
          "type": "address"
        }
      ],
      "name": "RaffleEnter",
      "type": "event"
    },
    {
      "anonymous": false,
      "inputs": [
        {
          "indexed": true,
          "internalType": "uint256",
          "name": "requestId",
          "type": "uint256"
        }
      ],
      "name": "RequestedRaffleWinner",
      "type": "event"
    },
    {
      "anonymous": false,
      "inputs": [
        {
          "indexed": true,
          "internalType": "address",
          "name": "winner",
          "type": "address"
        }
      ],
      "name": "WinnerPicked",
      "type": "event"
    },
    {
      "inputs": [
        {
          "internalType": "bytes",
          "name": "",
          "type": "bytes"
        }
      ],
      "name": "checkUpkeep",
      "outputs": [
        {
          "internalType": "bool",
          "name": "upkeepNeeded",
          "type": "bool"
        },
        {
          "internalType": "bytes",
          "name": "",
          "type": "bytes"
        }
      ],
      "stateMutability": "nonpayable",
      "type": "function"
    },
    {
      "inputs": [],
      "name": "enterRaffle",
      "outputs": [],
      "stateMutability": "payable",
      "type": "function"
    },
    {
      "inputs": [],
      "name": "getEntraenceFee",
      "outputs": [
        {
          "internalType": "uint256",
          "name": "",
          "type": "uint256"
        }
      ],
      "stateMutability": "view",
      "type": "function"
    },
    {
      "inputs": [],
      "name": "getInterval",
      "outputs": [
        {
          "internalType": "uint256",
          "name": "",
          "type": "uint256"
        }
      ],
      "stateMutability": "view",
      "type": "function"
    },
    {
      "inputs": [],
      "name": "getLastTimeStramp",
      "outputs": [
        {
          "internalType": "uint256",
          "name": "",
          "type": "uint256"
        }
      ],
      "stateMutability": "view",
      "type": "function"
    },
    {
      "inputs": [],
      "name": "getNumPlayers",
      "outputs": [
        {
          "internalType": "uint256",
          "name": "",
          "type": "uint256"
        }
      ],
      "stateMutability": "view",
      "type": "function"
    },
    {
      "inputs": [],
      "name": "getNumWords",
      "outputs": [
        {
          "internalType": "uint256",
          "name": "",
          "type": "uint256"
        }
      ],
      "stateMutability": "pure",
      "type": "function"
    },
    {
      "inputs": [
        {
          "internalType": "uint256",
          "name": "index",
          "type": "uint256"
        }
      ],
      "name": "getPlayers",
      "outputs": [
        {
          "internalType": "address",
          "name": "",
          "type": "address"
        }
      ],
      "stateMutability": "view",
      "type": "function"
    },
    {
      "inputs": [],
      "name": "getRaffleState",
      "outputs": [
        {
          "internalType": "enum Raffle.RaffleState",
          "name": "",
          "type": "uint8"
        }
      ],
      "stateMutability": "view",
      "type": "function"
    },
    {
      "inputs": [],
      "name": "getRecentWinner",
      "outputs": [
        {
          "internalType": "address",
          "name": "",
          "type": "address"
        }
      ],
      "stateMutability": "view",
      "type": "function"
    },
    {
      "inputs": [],
      "name": "getRequestConfirmations",
      "outputs": [
        {
          "internalType": "uint256",
          "name": "",
          "type": "uint256"
        }
      ],
      "stateMutability": "pure",
      "type": "function"
    },
    {
      "inputs": [
        {
          "internalType": "bytes",
          "name": "",
          "type": "bytes"
        }
      ],
      "name": "performUpkeep",
      "outputs": [],
      "stateMutability": "nonpayable",
      "type": "function"
    },
    {
      "inputs": [
        {
          "internalType": "uint256",
          "name": "requestId",
          "type": "uint256"
        },
        {
          "internalType": "uint256[]",
          "name": "randomWords",
          "type": "uint256[]"
        }
      ],
      "name": "rawFulfillRandomWords",
      "outputs": [],
      "stateMutability": "nonpayable",
      "type": "function"
    }
  ],
  "transactionHash": "0x74bd1a7aa1769e8143d2706bb23638c91262d1936562f9cdf3b9c741e3d8fee0",
  "args": [
    "0x5FbDB2315678afecb367f032d93F642f64180aa3",
    "10000000000000000",
    "0x79d3d8832d904592c0bf9818b621522c988bb8b0c05cdc3b15aea1b6e8db0c15",
    "1",
    "500000",
    "30"
  ],
  "numDeployments": 1,
  "solcInputHash": "9d3da1ae7943c5495fbc3876a1684523",
  "bytecode": "0x6101606040523480156200001257600080fd5b506040516200181938038062001819833981810160405281019062000038919062000294565b858073ffffffffffffffffffffffffffffffffffffffff1660808173ffffffffffffffffffffffffffffffffffffffff1681525050508573ffffffffffffffffffffffffffffffffffffffff166101208173ffffffffffffffffffffffffffffffffffffffff16815250508460a081815250508360c081815250508267ffffffffffffffff1660e08167ffffffffffffffff16815250508163ffffffff166101008163ffffffff16815250506000600160146101000a81548160ff021916908360018111156200010d576200010c62000330565b5b0217905550426002819055508061014081815250505050505050506200035f565b600080fd5b600073ffffffffffffffffffffffffffffffffffffffff82169050919050565b6000620001608262000133565b9050919050565b620001728162000153565b81146200017e57600080fd5b50565b600081519050620001928162000167565b92915050565b6000819050919050565b620001ad8162000198565b8114620001b957600080fd5b50565b600081519050620001cd81620001a2565b92915050565b6000819050919050565b620001e881620001d3565b8114620001f457600080fd5b50565b6000815190506200020881620001dd565b92915050565b600067ffffffffffffffff82169050919050565b6200022d816200020e565b81146200023957600080fd5b50565b6000815190506200024d8162000222565b92915050565b600063ffffffff82169050919050565b6200026e8162000253565b81146200027a57600080fd5b50565b6000815190506200028e8162000263565b92915050565b60008060008060008060c08789031215620002b457620002b36200012e565b5b6000620002c489828a0162000181565b9650506020620002d789828a01620001bc565b9550506040620002ea89828a01620001f7565b9450506060620002fd89828a016200023c565b93505060806200031089828a016200027d565b92505060a06200032389828a01620001bc565b9150509295509295509295565b7f4e487b7100000000000000000000000000000000000000000000000000000000600052602160045260246000fd5b60805160a05160c05160e05161010051610120516101405161144a620003cf6000396000818161082901526108ac015260006105f301526000610673015260006106500152600061062f0152600081816103cf015261088401526000818161030f0152610363015261144a6000f3fe6080604052600436106100c25760003560e01c806353a2c19a1161007f5780636e04ff0d116100595780636e04ff0d146102375780637a2647371461027557806391ad27b4146102a0578063e10d977f146102cb576100c2565b806353a2c19a146101b657806355c9e926146101e15780635f1b0fd81461020c576100c2565b8063115cbaf5146100c75780631fe543e3146100f25780632cfcc5391461011b5780634585e33b14610125578063460e20491461014e578063473f1ddc1461018b575b600080fd5b3480156100d357600080fd5b506100dc6102f6565b6040516100e99190610c29565b60405180910390f35b3480156100fe57600080fd5b5061011960048036038101906101149190610de7565b61030d565b005b6101236103cd565b005b34801561013157600080fd5b5061014c60048036038101906101479190610e9e565b61053c565b005b34801561015a57600080fd5b5061017560048036038101906101709190610eeb565b61073b565b6040516101829190610f59565b60405180910390f35b34801561019757600080fd5b506101a0610782565b6040516101ad9190610f59565b60405180910390f35b3480156101c257600080fd5b506101cb6107ac565b6040516101d89190610f83565b60405180910390f35b3480156101ed57600080fd5b506101f66107bb565b6040516102039190610f83565b60405180910390f35b34801561021857600080fd5b506102216107c7565b60405161022e9190610f83565b60405180910390f35b34801561024357600080fd5b5061025e60048036038101906102599190611053565b6107d4565b60405161026c92919061113f565b60405180910390f35b34801561028157600080fd5b5061028a610880565b6040516102979190610f83565b60405180910390f35b3480156102ac57600080fd5b506102b56108a8565b6040516102c29190610f83565b60405180910390f35b3480156102d757600080fd5b506102e06108d0565b6040516102ed9190610f83565b60405180910390f35b6000600160149054906101000a900460ff16905090565b7f000000000000000000000000000000000000000000000000000000000000000073ffffffffffffffffffffffffffffffffffffffff163373ffffffffffffffffffffffffffffffffffffffff16146103bf57337f00000000000000000000000000000000000000000000000000000000000000006040517f1cf993f40000000000000000000000000000000000000000000000000000000081526004016103b692919061116f565b60405180910390fd5b6103c982826108da565b5050565b7f0000000000000000000000000000000000000000000000000000000000000000341015610427576040517fbd4e069500000000000000000000000000000000000000000000000000000000815260040160405180910390fd5b6000600181111561043b5761043a610bb2565b5b600160149054906101000a900460ff16600181111561045d5761045c610bb2565b5b14610494576040517f1425571c00000000000000000000000000000000000000000000000000000000815260040160405180910390fd5b6000339080600181540180825580915050600190039060005260206000200160009091909190916101000a81548173ffffffffffffffffffffffffffffffffffffffff021916908373ffffffffffffffffffffffffffffffffffffffff1602179055503373ffffffffffffffffffffffffffffffffffffffff167f0805e1d667bddb8a95f0f09880cf94f403fb596ce79928d9f29b74203ba284d460405160405180910390a2565b6000610556604051806020016040528060008152506107d4565b509050806105c55747600080549050600160149054906101000a900460ff16600181111561058757610586610bb2565b5b6040517f584327aa0000000000000000000000000000000000000000000000000000000081526004016105bc93929190611198565b60405180910390fd5b60018060146101000a81548160ff021916908360018111156105ea576105e9610bb2565b5b021790555060007f000000000000000000000000000000000000000000000000000000000000000073ffffffffffffffffffffffffffffffffffffffff16635d3b1d307f00000000000000000000000000000000000000000000000000000000000000007f000000000000000000000000000000000000000000000000000000000000000060037f000000000000000000000000000000000000000000000000000000000000000060016040518663ffffffff1660e01b81526004016106b4959493929190611247565b602060405180830381600087803b1580156106ce57600080fd5b505af11580156106e2573d6000803e3d6000fd5b505050506040513d601f19601f8201168201806040525081019061070691906112af565b9050807fcd6e45c8998311cab7e9d4385596cac867e20a0587194b954fa3a731c93ce78b60405160405180910390a250505050565b60008082815481106107505761074f6112dc565b5b9060005260206000200160009054906101000a900473ffffffffffffffffffffffffffffffffffffffff169050919050565b6000600160009054906101000a900473ffffffffffffffffffffffffffffffffffffffff16905090565b6000600163ffffffff16905090565b60008080549050905090565b6000600361ffff16905090565b6000606060008060018111156107ed576107ec610bb2565b5b600160149054906101000a900460ff16600181111561080f5761080e610bb2565b5b1490506000804711905060008060008054905011905060007f000000000000000000000000000000000000000000000000000000000000000060025442610856919061133a565b1190508380156108635750825b801561086c5750815b80156108755750805b955050505050915091565b60007f0000000000000000000000000000000000000000000000000000000000000000905090565b60007f0000000000000000000000000000000000000000000000000000000000000000905090565b6000600254905090565b60008080549050826000815181106108f5576108f46112dc565b5b6020026020010151610907919061139d565b9050600080828154811061091e5761091d6112dc565b5b9060005260206000200160009054906101000a900473ffffffffffffffffffffffffffffffffffffffff16905080600160006101000a81548173ffffffffffffffffffffffffffffffffffffffff021916908373ffffffffffffffffffffffffffffffffffffffff1602179055506000600160146101000a81548160ff021916908360018111156109b2576109b1610bb2565b5b0217905550600067ffffffffffffffff8111156109d2576109d1610ca4565b5b604051908082528060200260200182016040528015610a005781602001602082028036833780820191505090505b5060009080519060200190610a16929190610b0b565b504260028190555060008173ffffffffffffffffffffffffffffffffffffffff1647604051610a44906113ff565b60006040518083038185875af1925050503d8060008114610a81576040519150601f19603f3d011682016040523d82523d6000602084013e610a86565b606091505b5050905080610ac1576040517fa1d04b3900000000000000000000000000000000000000000000000000000000815260040160405180910390fd5b8173ffffffffffffffffffffffffffffffffffffffff167f5b690ec4a06fe979403046eaeea5b3ce38524683c3001f662c8b5a829632f7df60405160405180910390a25050505050565b828054828255906000526020600020908101928215610b84579160200282015b82811115610b835782518260006101000a81548173ffffffffffffffffffffffffffffffffffffffff021916908373ffffffffffffffffffffffffffffffffffffffff16021790555091602001919060010190610b2b565b5b509050610b919190610b95565b5090565b5b80821115610bae576000816000905550600101610b96565b5090565b7f4e487b7100000000000000000000000000000000000000000000000000000000600052602160045260246000fd5b60028110610bf257610bf1610bb2565b5b50565b6000819050610c0382610be1565b919050565b6000610c1382610bf5565b9050919050565b610c2381610c08565b82525050565b6000602082019050610c3e6000830184610c1a565b92915050565b6000604051905090565b600080fd5b600080fd5b6000819050919050565b610c6b81610c58565b8114610c7657600080fd5b50565b600081359050610c8881610c62565b92915050565b600080fd5b6000601f19601f8301169050919050565b7f4e487b7100000000000000000000000000000000000000000000000000000000600052604160045260246000fd5b610cdc82610c93565b810181811067ffffffffffffffff82111715610cfb57610cfa610ca4565b5b80604052505050565b6000610d0e610c44565b9050610d1a8282610cd3565b919050565b600067ffffffffffffffff821115610d3a57610d39610ca4565b5b602082029050602081019050919050565b600080fd5b6000610d63610d5e84610d1f565b610d04565b90508083825260208201905060208402830185811115610d8657610d85610d4b565b5b835b81811015610daf5780610d9b8882610c79565b845260208401935050602081019050610d88565b5050509392505050565b600082601f830112610dce57610dcd610c8e565b5b8135610dde848260208601610d50565b91505092915050565b60008060408385031215610dfe57610dfd610c4e565b5b6000610e0c85828601610c79565b925050602083013567ffffffffffffffff811115610e2d57610e2c610c53565b5b610e3985828601610db9565b9150509250929050565b600080fd5b60008083601f840112610e5e57610e5d610c8e565b5b8235905067ffffffffffffffff811115610e7b57610e7a610e43565b5b602083019150836001820283011115610e9757610e96610d4b565b5b9250929050565b60008060208385031215610eb557610eb4610c4e565b5b600083013567ffffffffffffffff811115610ed357610ed2610c53565b5b610edf85828601610e48565b92509250509250929050565b600060208284031215610f0157610f00610c4e565b5b6000610f0f84828501610c79565b91505092915050565b600073ffffffffffffffffffffffffffffffffffffffff82169050919050565b6000610f4382610f18565b9050919050565b610f5381610f38565b82525050565b6000602082019050610f6e6000830184610f4a565b92915050565b610f7d81610c58565b82525050565b6000602082019050610f986000830184610f74565b92915050565b600080fd5b600067ffffffffffffffff821115610fbe57610fbd610ca4565b5b610fc782610c93565b9050602081019050919050565b82818337600083830152505050565b6000610ff6610ff184610fa3565b610d04565b90508281526020810184848401111561101257611011610f9e565b5b61101d848285610fd4565b509392505050565b600082601f83011261103a57611039610c8e565b5b813561104a848260208601610fe3565b91505092915050565b60006020828403121561106957611068610c4e565b5b600082013567ffffffffffffffff81111561108757611086610c53565b5b61109384828501611025565b91505092915050565b60008115159050919050565b6110b18161109c565b82525050565b600081519050919050565b600082825260208201905092915050565b60005b838110156110f15780820151818401526020810190506110d6565b83811115611100576000848401525b50505050565b6000611111826110b7565b61111b81856110c2565b935061112b8185602086016110d3565b61113481610c93565b840191505092915050565b600060408201905061115460008301856110a8565b81810360208301526111668184611106565b90509392505050565b60006040820190506111846000830185610f4a565b6111916020830184610f4a565b9392505050565b60006060820190506111ad6000830186610f74565b6111ba6020830185610f74565b6111c76040830184610f74565b949350505050565b6000819050919050565b6111e2816111cf565b82525050565b600067ffffffffffffffff82169050919050565b611205816111e8565b82525050565b600061ffff82169050919050565b6112228161120b565b82525050565b600063ffffffff82169050919050565b61124181611228565b82525050565b600060a08201905061125c60008301886111d9565b61126960208301876111fc565b6112766040830186611219565b6112836060830185611238565b6112906080830184611238565b9695505050505050565b6000815190506112a981610c62565b92915050565b6000602082840312156112c5576112c4610c4e565b5b60006112d38482850161129a565b91505092915050565b7f4e487b7100000000000000000000000000000000000000000000000000000000600052603260045260246000fd5b7f4e487b7100000000000000000000000000000000000000000000000000000000600052601160045260246000fd5b600061134582610c58565b915061135083610c58565b9250828210156113635761136261130b565b5b828203905092915050565b7f4e487b7100000000000000000000000000000000000000000000000000000000600052601260045260246000fd5b60006113a882610c58565b91506113b383610c58565b9250826113c3576113c261136e565b5b828206905092915050565b600081905092915050565b50565b60006113e96000836113ce565b91506113f4826113d9565b600082019050919050565b600061140a826113dc565b915081905091905056fea2646970667358221220526c2a0e3b4d7fbbe458ac1cdd50242838cb3f8ea83cf3368e576a0cda82163164736f6c63430008090033",
  "devdoc": {
    "author": "Alvaro Teran",
    "details": "This implements Chainlink VRF V2 & Chainlink Keepers",
    "kind": "dev",
    "methods": {
      "checkUpkeep(bytes)": {
        "details": "This is he function that the Chainlink Keeper nodes call they look for the `unkeepNeeded` to return true. The following should be true in order to return true: 1. Our time interval should have passed. 2. The lottery should have at least 1 player, and have some ETH. 3. Our subscription is funded with LINK. 4. The lottery should be in an \"open\" state"
      }
    },
    "title": "a Sample of Raffle Contract",
    "version": 1
  },
  "userdoc": {
    "kind": "user",
    "methods": {},
    "notice": "This contract is for creating an untamperable decentralized smart contract",
    "version": 1
  },
  "storageLayout": {
    "storage": [
      {
        "astId": 1181,
        "contract": "contracts/Raffle.sol:Raffle",
        "label": "s_players",
        "offset": 0,
        "slot": "0",
        "type": "t_array(t_address_payable)dyn_storage"
      },
      {
        "astId": 1183,
        "contract": "contracts/Raffle.sol:Raffle",
        "label": "s_recentWinner",
        "offset": 0,
        "slot": "1",
        "type": "t_address"
      },
      {
        "astId": 1186,
        "contract": "contracts/Raffle.sol:Raffle",
        "label": "s_raffleState",
        "offset": 20,
        "slot": "1",
        "type": "t_enum(RaffleState)1161"
      },
      {
        "astId": 1188,
        "contract": "contracts/Raffle.sol:Raffle",
        "label": "s_lastTimeStamp",
        "offset": 0,
        "slot": "2",
        "type": "t_uint256"
      }
    ],
    "types": {
      "t_address": {
        "encoding": "inplace",
        "label": "address",
        "numberOfBytes": "20"
      },
      "t_address_payable": {
        "encoding": "inplace",
        "label": "address payable",
        "numberOfBytes": "20"
      },
      "t_array(t_address_payable)dyn_storage": {
        "base": "t_address_payable",
        "encoding": "dynamic_array",
        "label": "address payable[]",
        "numberOfBytes": "32"
      },
      "t_enum(RaffleState)1161": {
        "encoding": "inplace",
        "label": "enum Raffle.RaffleState",
        "numberOfBytes": "1"
      },
      "t_uint256": {
        "encoding": "inplace",
        "label": "uint256",
        "numberOfBytes": "32"
      }
    }
  }
}